{
  "_format": "hh-sol-artifact-1",
  "contractName": "TaskPlatform",
  "sourceName": "contracts/TaskPlatform.sol",
  "abi": [
    {
      "inputs": [
        {
          "internalType": "uint256",
          "name": "_id",
          "type": "uint256"
        }
      ],
      "name": "claimTask",
      "outputs": [],
      "stateMutability": "nonpayable",
      "type": "function"
    },
    {
      "inputs": [
        {
          "internalType": "uint256",
          "name": "_id",
          "type": "uint256"
        }
      ],
      "name": "completeTask",
      "outputs": [],
      "stateMutability": "nonpayable",
      "type": "function"
    },
    {
      "inputs": [
        {
          "internalType": "string",
          "name": "_description",
          "type": "string"
        }
      ],
      "name": "createTask",
      "outputs": [],
      "stateMutability": "payable",
      "type": "function"
    },
    {
      "inputs": [],
      "name": "taskCount",
      "outputs": [
        {
          "internalType": "uint256",
          "name": "",
          "type": "uint256"
        }
      ],
      "stateMutability": "view",
      "type": "function"
    },
    {
      "inputs": [
        {
          "internalType": "uint256",
          "name": "",
          "type": "uint256"
        }
      ],
      "name": "tasks",
      "outputs": [
        {
          "internalType": "uint256",
          "name": "id",
          "type": "uint256"
        },
        {
          "internalType": "address payable",
          "name": "employer",
          "type": "address"
        },
        {
          "internalType": "address payable",
          "name": "worker",
          "type": "address"
        },
        {
          "internalType": "string",
          "name": "description",
          "type": "string"
        },
        {
          "internalType": "uint256",
          "name": "reward",
          "type": "uint256"
        },
        {
          "internalType": "enum TaskPlatform.Status",
          "name": "status",
          "type": "uint8"
        }
      ],
      "stateMutability": "view",
      "type": "function"
    }
  ],
  "bytecode": "0x608060405260008055348015601357600080fd5b506110d8806100236000396000f3fe60806040526004361061004a5760003560e01c8063111002aa1461004f5780638d9776721461006b5780638dd33495146100ad578063b6cb58a5146100d6578063e1e2955814610101575b600080fd5b610069600480360381019061006491906108bc565b61012a565b005b34801561007757600080fd5b50610092600480360381019061008d919061093b565b6102f5565b6040516100a496959493929190610aae565b60405180910390f35b3480156100b957600080fd5b506100d460048036038101906100cf919061093b565b610406565b005b3480156100e257600080fd5b506100eb61059b565b6040516100f89190610b16565b60405180910390f35b34801561010d57600080fd5b506101286004803603810190610123919061093b565b6105a1565b005b6000341161016d576040517f08c379a000000000000000000000000000000000000000000000000000000000815260040161016490610b7d565b60405180910390fd5b60008081548092919061017f90610bcc565b91905055506040518060c0016040528060005481526020013373ffffffffffffffffffffffffffffffffffffffff168152602001600073ffffffffffffffffffffffffffffffffffffffff168152602001828152602001348152602001600060038111156101f0576101ef610a37565b5b81525060016000805481526020019081526020016000206000820151816000015560208201518160010160006101000a81548173ffffffffffffffffffffffffffffffffffffffff021916908373ffffffffffffffffffffffffffffffffffffffff16021790555060408201518160020160006101000a81548173ffffffffffffffffffffffffffffffffffffffff021916908373ffffffffffffffffffffffffffffffffffffffff16021790555060608201518160030190816102b49190610e20565b506080820151816004015560a08201518160050160006101000a81548160ff021916908360038111156102ea576102e9610a37565b5b021790555090505050565b60016020528060005260406000206000915090508060000154908060010160009054906101000a900473ffffffffffffffffffffffffffffffffffffffff16908060020160009054906101000a900473ffffffffffffffffffffffffffffffffffffffff169080600301805461036a90610c43565b80601f016020809104026020016040519081016040528092919081815260200182805461039690610c43565b80156103e35780601f106103b8576101008083540402835291602001916103e3565b820191906000526020600020905b8154815290600101906020018083116103c657829003601f168201915b5050505050908060040154908060050160009054906101000a900460ff16905086565b60006001600083815260200190815260200160002090506000600381111561043157610430610a37565b5b8160050160009054906101000a900460ff16600381111561045557610454610a37565b5b14610495576040517f08c379a000000000000000000000000000000000000000000000000000000000815260040161048c90610f3e565b60405180910390fd5b8060010160009054906101000a900473ffffffffffffffffffffffffffffffffffffffff1673ffffffffffffffffffffffffffffffffffffffff163373ffffffffffffffffffffffffffffffffffffffff1603610527576040517f08c379a000000000000000000000000000000000000000000000000000000000815260040161051e90610faa565b60405180910390fd5b338160020160006101000a81548173ffffffffffffffffffffffffffffffffffffffff021916908373ffffffffffffffffffffffffffffffffffffffff16021790555060018160050160006101000a81548160ff0219169083600381111561059257610591610a37565b5b02179055505050565b60005481565b60006001600083815260200190815260200160002090508060010160009054906101000a900473ffffffffffffffffffffffffffffffffffffffff1673ffffffffffffffffffffffffffffffffffffffff163373ffffffffffffffffffffffffffffffffffffffff161461064a576040517f08c379a000000000000000000000000000000000000000000000000000000000815260040161064190611016565b60405180910390fd5b6001600381111561065e5761065d610a37565b5b8160050160009054906101000a900460ff16600381111561068257610681610a37565b5b146106c2576040517f08c379a00000000000000000000000000000000000000000000000000000000081526004016106b990611082565b60405180910390fd5b60028160050160006101000a81548160ff021916908360038111156106ea576106e9610a37565b5b02179055508060020160009054906101000a900473ffffffffffffffffffffffffffffffffffffffff1673ffffffffffffffffffffffffffffffffffffffff166108fc82600401549081150290604051600060405180830381858888f1935050505015801561075d573d6000803e3d6000fd5b505050565b6000604051905090565b600080fd5b600080fd5b600080fd5b600080fd5b6000601f19601f8301169050919050565b7f4e487b7100000000000000000000000000000000000000000000000000000000600052604160045260246000fd5b6107c982610780565b810181811067ffffffffffffffff821117156107e8576107e7610791565b5b80604052505050565b60006107fb610762565b905061080782826107c0565b919050565b600067ffffffffffffffff82111561082757610826610791565b5b61083082610780565b9050602081019050919050565b82818337600083830152505050565b600061085f61085a8461080c565b6107f1565b90508281526020810184848401111561087b5761087a61077b565b5b61088684828561083d565b509392505050565b600082601f8301126108a3576108a2610776565b5b81356108b384826020860161084c565b91505092915050565b6000602082840312156108d2576108d161076c565b5b600082013567ffffffffffffffff8111156108f0576108ef610771565b5b6108fc8482850161088e565b91505092915050565b6000819050919050565b61091881610905565b811461092357600080fd5b50565b6000813590506109358161090f565b92915050565b6000602082840312156109515761095061076c565b5b600061095f84828501610926565b91505092915050565b61097181610905565b82525050565b600073ffffffffffffffffffffffffffffffffffffffff82169050919050565b60006109a282610977565b9050919050565b6109b281610997565b82525050565b600081519050919050565b600082825260208201905092915050565b60005b838110156109f25780820151818401526020810190506109d7565b60008484015250505050565b6000610a09826109b8565b610a1381856109c3565b9350610a238185602086016109d4565b610a2c81610780565b840191505092915050565b7f4e487b7100000000000000000000000000000000000000000000000000000000600052602160045260246000fd5b60048110610a7757610a76610a37565b5b50565b6000819050610a8882610a66565b919050565b6000610a9882610a7a565b9050919050565b610aa881610a8d565b82525050565b600060c082019050610ac36000830189610968565b610ad060208301886109a9565b610add60408301876109a9565b8181036060830152610aef81866109fe565b9050610afe6080830185610968565b610b0b60a0830184610a9f565b979650505050505050565b6000602082019050610b2b6000830184610968565b92915050565b7f526577617264206d7573742062652067726561746572207468616e2030000000600082015250565b6000610b67601d836109c3565b9150610b7282610b31565b602082019050919050565b60006020820190508181036000830152610b9681610b5a565b9050919050565b7f4e487b7100000000000000000000000000000000000000000000000000000000600052601160045260246000fd5b6000610bd782610905565b91507fffffffffffffffffffffffffffffffffffffffffffffffffffffffffffffffff8203610c0957610c08610b9d565b5b600182019050919050565b7f4e487b7100000000000000000000000000000000000000000000000000000000600052602260045260246000fd5b60006002820490506001821680610c5b57607f821691505b602082108103610c6e57610c6d610c14565b5b50919050565b60008190508160005260206000209050919050565b60006020601f8301049050919050565b600082821b905092915050565b600060088302610cd67fffffffffffffffffffffffffffffffffffffffffffffffffffffffffffffffff82610c99565b610ce08683610c99565b95508019841693508086168417925050509392505050565b6000819050919050565b6000610d1d610d18610d1384610905565b610cf8565b610905565b9050919050565b6000819050919050565b610d3783610d02565b610d4b610d4382610d24565b848454610ca6565b825550505050565b600090565b610d60610d53565b610d6b818484610d2e565b505050565b5b81811015610d8f57610d84600082610d58565b600181019050610d71565b5050565b601f821115610dd457610da581610c74565b610dae84610c89565b81016020851015610dbd578190505b610dd1610dc985610c89565b830182610d70565b50505b505050565b600082821c905092915050565b6000610df760001984600802610dd9565b1980831691505092915050565b6000610e108383610de6565b9150826002028217905092915050565b610e29826109b8565b67ffffffffffffffff811115610e4257610e41610791565b5b610e4c8254610c43565b610e57828285610d93565b600060209050601f831160018114610e8a5760008415610e78578287015190505b610e828582610e04565b865550610eea565b601f198416610e9886610c74565b60005b82811015610ec057848901518255600182019150602085019450602081019050610e9b565b86831015610edd5784890151610ed9601f891682610de6565b8355505b6001600288020188555050505b505050505050565b7f5461736b206e6f7420617661696c61626c650000000000000000000000000000600082015250565b6000610f286012836109c3565b9150610f3382610ef2565b602082019050919050565b60006020820190508181036000830152610f5781610f1b565b9050919050565b7f456d706c6f7965722063616e6e6f7420636c61696d206f776e207461736b0000600082015250565b6000610f94601e836109c3565b9150610f9f82610f5e565b602082019050919050565b60006020820190508181036000830152610fc381610f87565b9050919050565b7f4f6e6c7920656d706c6f7965722063616e20636f6e6669726d00000000000000600082015250565b60006110006019836109c3565b915061100b82610fca565b602082019050919050565b6000602082019050818103600083015261102f81610ff3565b9050919050565b7f5461736b206d75737420626520636c61696d6564206669727374000000000000600082015250565b600061106c601a836109c3565b915061107782611036565b602082019050919050565b6000602082019050818103600083015261109b8161105f565b905091905056fea2646970667358221220e63fc03cc45fbdfeade60f4cb3102a8184046d1421b3bf7988e277c09583e8f864736f6c634300081c0033",
  "linkReferences": {},
  "deployedLinkReferences": {}
}